:020000040000FA
:102000009802001069210000712100007321000076
:1020100075210000772100007921000000000000F8
:102020000000000000000000000000007B21000014
:102030007D210000000000007F21000081210000C0
:102040008321000083210000832100008321000000
:1020500083210000832100008321000083210000F0
:1020600083210000832100008321000083210000E0
:1020700083210000832100008321000083210000D0
:1020800083210000832100008321000083210000C0
:1020900083210000832100008321000083210000B0
:1020A00083210000832100008321000083210000A0
:1020B0008321000083210000832100008321000090
:1020C00083210000832100008321000000F002F83A
:1020D00000F03AF80AA090E8000C82448344AAF188
:1020E0000107DA4501D100F02FF8AFF2090EBAE886
:1020F0000F0013F0010F18BFFB1A43F0010318473C
:102100007C0700009C070000103A24BF78C878C103
:10211000FAD8520724BF30C830C144BF04680C60ED
:10212000704700000023002400250026103A28BF35
:1021300078C1FBD8520728BF30C148BF0B60704739
:102140001FB51FBD10B510BD00F0FDFA1146FFF719
:10215000F7FF00F08BF900F01BFB03B4FFF7F2FF71
:1021600003BC00F01FFB00000948804709480047F6
:10217000FEE7FEE7FEE7FEE7FEE7FEE7FEE7FEE737
:10218000FEE7FEE704480549034A054B7047000097
:10219000D7220000CD200000980000109802001007
:1021A0009800001095480068C0F30160032860D1D2
:1021B00092488430006800F0030030B1012820D03C
:1021C000022839D0032853D100E000BF8B480068B3
:1021D000C0F30E00401C40008949484387498839B4
:1021E000D1F88810C1F30741491CB0FBF1F18348D5
:1021F0007C300068C0B2401CB1FBF0F0814908603F
:1022000036E07E480068C0F30E00401C40007E4966
:1022100048437A498839D1F88810C1F30741491CED
:10222000B0FBF1F175487C300068C0B2401CB1FBD6
:10223000F0F0744908601BE070480068C0F30E00BD
:10224000401C40004FF4FA4148436C498839D1F8AA
:102250008810C1F30741491CB0FBF1F167487C309D
:102260000068C0B2401CB1FBF0F06649086000BFD6
:1022700030E062488430006800F0030030B101288B
:1022800010D0022819D0032823D100E000BF5B48FA
:102290007C300068C0B2401C5949B1FBF0F059498C
:1022A000086016E055487C300068C0B2401C5649B2
:1022B000B1FBF0F0534908600BE050487C300068F7
:1022C000C0B2401C4FF4FA41B1FBF0F04D49086038
:1022D00000BF00BF704720204C49086000BF4B483A
:1022E000006800F040000028F9D0032043497C3109
:1022F0000860012041498839C1F80C0144483F4930
:10230000091F0860AA203D49091D08605520086082
:1023100001203A4908390860AA203849091D086097
:10232000552036498839C1F88C0000BF3348006811
:1023300000F080600028F9D0032030490839086097
:10234000AA202E498839C1F88C0055202B49091D37
:10235000086000BF2948006800F040700028F9D0EC
:10236000232026491C310860AA2024498839C1F855
:10237000AC00552021492431086001201F49183143
:102380000860AA201D492431086055201B4988395E
:10239000C1F8AC0000BF19482030006800F480602C
:1023A0000028F8D00320154918310860AA201349E5
:1023B0008839C1F8AC00552010492431086000BFAD
:1023C0000E482030006800F440700028F8D000204B
:1023D0000E490831086009498839C1F8AC010D4837
:1023E00006493C310860002008492831086043F262
:1023F0003A000249883908607047000088C00F40E1
:1024000000093D0000000010001BB700A0C10F40F4
:1024100063000500DE872804F0B503460020002491
:1024200000250BB1102904D93026167000265670ED
:10243000F0BD0AE0B3FBF1F601FB1636284FBE5D96
:10244000284F3E54401CB3FBF1F3002BF2D105465C
:10245000401E002404E0234E365C1655401E641CCA
:10246000AC42F8DB0026165500BFE1E78CB0FFF761
:1024700032FF40F2391504AA0A212846FFF7CCFFA3
:102480004FF41652022101A800F0C1F904A901A8D5
:1024900000F08FF914A101A800F08BF901AC2078AD
:1024A00018B9204600F0B9F815E02078012803D1CA
:1024B000204600F0BDF80EE02078022803D1204627
:1024C00000F0C1F807E02078032803D1204600F08F
:1024D000C5F800E051200949486500BFFEE700004B
:1024E0000400001014000010697420697320414634
:1024F000206C6962726172790000000000C00920DE
:1025000078490968784AC2F8A8111146D1F8C41070
:1025100041F00801744AC43211608321734A117377
:10252000017A1170002111711146097B21F080019F
:102530001173072111726E49096841F050016C4A0C
:102540001160704767490968674AC2F8A8111146C7
:10255000D1F8C41041F01001634AC43211608321E4
:10256000644A1173017A1170002111711146097BBF
:1025700021F080011173072111725D49096841F052
:1025800080415B4A11601146096841F00101116008
:10259000704754490968544AC2F8A8111146D1F845
:1025A000C41041F08071504AC43211608321524AF4
:1025B0001173017A1170002111711146097B21F00C
:1025C00080011173072111724949096841F4A00182
:1025D000474A1160704743490968434AC2F8A81145
:1025E0001146D1F8C41041F000713F4AC432116065
:1025F0008321424A1173017A117000211171114631
:10260000097B21F080011173072111723849096893
:1026100041F00A01364A11607047014600BF334855
:10262000007D00F001000028F9D0304800787047A4
:10263000014600BF2F48007D00F001000028F9D0BE
:102640002C4800787047014600BF2B48007D00F001
:1026500001000028F9D0284800787047014600BFE3
:102660002648007D00F001000028F9D023480078BA
:10267000704700BF1D4A127D02F02002002AF9D0E7
:102680001A4A11708022194B30331A70704700BFFC
:10269000184A127D02F02002002AF9D0154A117062
:1026A0008022144B30331A70704700BF124A127DDB
:1026B00002F02002002AF9D00F4A117080220E4B3E
:1026C00030331A70704700BF0C4A127D02F02002AE
:1026D000002AF9D0094A11708022084B30331A7051
:1026E00070470000A8C10F4000C00F4000C000406C
:1026F00000C00240000001400080094000C00940C5
:10270000F0B506460C4F3968C1F30E077A1CC1F3C9
:1027100007477B1C02EB4207FF0097FBF3F4064FD1
:10272000883FD7F804717D1C94FBF5F7DFF80CC0E7
:1027300007FB0CF0F0BD000088C00F4040420F00C6
:10274000704770477047754600F028F8AE460500A0
:102750006946534620F00700854618B020B5FFF7BC
:1027600011FDBDE820404FF000064FF000074FF08C
:1027700000084FF0000B21F00701AC46ACE8C0099F
:10278000ACE8C009ACE8C009ACE8C0098D467047A8
:102790000446AFF300802046FFF7DFFC0048704797
:1027A0003400001001491820ABBEFEE726000200ED
:1027B00070472DE9F04105460E46002722E02C46E1
:1027C00016F80780207820B941462046FFF751FFD0
:1027D00016E02078012804D141462046FFF757FF34
:1027E0000EE02078022804D141462046FFF75DFF25
:1027F00006E02078032803D141462046FFF763FF17
:1028000000BF7F1CF05D0028D9D1BDE8F081F8B58C
:1028100004460E461546267094F90000032801DD93
:102820002046F8BD00BF6846FFF76AFF0746C0179D
:1028300007EB9070801060602901606890FBF1F0F8
:10284000A06000BF207818B92046FFF759FE13E0BA
:102850002078012803D12046FFF774FE0CE0207891
:10286000022803D12046FFF794FE05E020780328D4
:1028700002D12046FFF7AFFE2046D2E79C28000099
:10288000000000101400000008210000B028000023
:1028900014000010840200002421000000E1F5056E
:1028A0003031323334353637383941424344454686
:04000005000020CD0A
:00000001FF
